{
  "_format": "hh-sol-artifact-1",
  "contractName": "nft",
  "sourceName": "contracts/nft.sol",
  "abi": [
    {
      "inputs": [],
      "stateMutability": "nonpayable",
      "type": "constructor"
    },
    {
      "anonymous": false,
      "inputs": [
        {
          "indexed": true,
          "internalType": "address",
          "name": "owner",
          "type": "address"
        },
        {
          "indexed": true,
          "internalType": "address",
          "name": "approved",
          "type": "address"
        },
        {
          "indexed": true,
          "internalType": "uint256",
          "name": "tokenId",
          "type": "uint256"
        }
      ],
      "name": "Approval",
      "type": "event"
    },
    {
      "anonymous": false,
      "inputs": [
        {
          "indexed": true,
          "internalType": "address",
          "name": "owner",
          "type": "address"
        },
        {
          "indexed": true,
          "internalType": "address",
          "name": "operator",
          "type": "address"
        },
        {
          "indexed": false,
          "internalType": "bool",
          "name": "approved",
          "type": "bool"
        }
      ],
      "name": "ApprovalForAll",
      "type": "event"
    },
    {
      "anonymous": false,
      "inputs": [
        {
          "indexed": true,
          "internalType": "address",
          "name": "from",
          "type": "address"
        },
        {
          "indexed": true,
          "internalType": "address",
          "name": "to",
          "type": "address"
        },
        {
          "indexed": true,
          "internalType": "uint256",
          "name": "tokenId",
          "type": "uint256"
        }
      ],
      "name": "Transfer",
      "type": "event"
    },
    {
      "inputs": [
        {
          "internalType": "address",
          "name": "to",
          "type": "address"
        },
        {
          "internalType": "uint256",
          "name": "tokenId",
          "type": "uint256"
        }
      ],
      "name": "approve",
      "outputs": [],
      "stateMutability": "nonpayable",
      "type": "function"
    },
    {
      "inputs": [
        {
          "internalType": "address",
          "name": "owner",
          "type": "address"
        }
      ],
      "name": "balanceOf",
      "outputs": [
        {
          "internalType": "uint256",
          "name": "",
          "type": "uint256"
        }
      ],
      "stateMutability": "view",
      "type": "function"
    },
    {
      "inputs": [
        {
          "internalType": "uint256",
          "name": "tokenId",
          "type": "uint256"
        }
      ],
      "name": "deleteToken",
      "outputs": [],
      "stateMutability": "payable",
      "type": "function"
    },
    {
      "inputs": [
        {
          "internalType": "uint256",
          "name": "tokenId",
          "type": "uint256"
        }
      ],
      "name": "getApproved",
      "outputs": [
        {
          "internalType": "address",
          "name": "",
          "type": "address"
        }
      ],
      "stateMutability": "view",
      "type": "function"
    },
    {
      "inputs": [
        {
          "internalType": "address",
          "name": "owner",
          "type": "address"
        }
      ],
      "name": "getBalance",
      "outputs": [
        {
          "internalType": "uint256",
          "name": "",
          "type": "uint256"
        }
      ],
      "stateMutability": "view",
      "type": "function"
    },
    {
      "inputs": [
        {
          "internalType": "string",
          "name": "ipfsHash",
          "type": "string"
        }
      ],
      "name": "ipfsHashToURI",
      "outputs": [
        {
          "internalType": "string",
          "name": "",
          "type": "string"
        }
      ],
      "stateMutability": "pure",
      "type": "function"
    },
    {
      "inputs": [
        {
          "internalType": "address",
          "name": "owner",
          "type": "address"
        },
        {
          "internalType": "address",
          "name": "operator",
          "type": "address"
        }
      ],
      "name": "isApprovedForAll",
      "outputs": [
        {
          "internalType": "bool",
          "name": "",
          "type": "bool"
        }
      ],
      "stateMutability": "view",
      "type": "function"
    },
    {
      "inputs": [
        {
          "internalType": "address",
          "name": "to",
          "type": "address"
        },
        {
          "internalType": "string",
          "name": "tokenHash",
          "type": "string"
        }
      ],
      "name": "mint",
      "outputs": [],
      "stateMutability": "nonpayable",
      "type": "function"
    },
    {
      "inputs": [],
      "name": "name",
      "outputs": [
        {
          "internalType": "string",
          "name": "",
          "type": "string"
        }
      ],
      "stateMutability": "view",
      "type": "function"
    },
    {
      "inputs": [],
      "name": "nextTokenId",
      "outputs": [
        {
          "internalType": "uint256",
          "name": "",
          "type": "uint256"
        }
      ],
      "stateMutability": "view",
      "type": "function"
    },
    {
      "inputs": [
        {
          "internalType": "uint256",
          "name": "tokenId",
          "type": "uint256"
        }
      ],
      "name": "ownerOf",
      "outputs": [
        {
          "internalType": "address",
          "name": "",
          "type": "address"
        }
      ],
      "stateMutability": "view",
      "type": "function"
    },
    {
      "inputs": [
        {
          "internalType": "address",
          "name": "from",
          "type": "address"
        },
        {
          "internalType": "address",
          "name": "to",
          "type": "address"
        },
        {
          "internalType": "uint256",
          "name": "tokenId",
          "type": "uint256"
        }
      ],
      "name": "safeTransferFrom",
      "outputs": [],
      "stateMutability": "nonpayable",
      "type": "function"
    },
    {
      "inputs": [
        {
          "internalType": "address",
          "name": "from",
          "type": "address"
        },
        {
          "internalType": "address",
          "name": "to",
          "type": "address"
        },
        {
          "internalType": "uint256",
          "name": "tokenId",
          "type": "uint256"
        },
        {
          "internalType": "bytes",
          "name": "data",
          "type": "bytes"
        }
      ],
      "name": "safeTransferFrom",
      "outputs": [],
      "stateMutability": "nonpayable",
      "type": "function"
    },
    {
      "inputs": [
        {
          "internalType": "address",
          "name": "operator",
          "type": "address"
        },
        {
          "internalType": "bool",
          "name": "approved",
          "type": "bool"
        }
      ],
      "name": "setApprovalForAll",
      "outputs": [],
      "stateMutability": "nonpayable",
      "type": "function"
    },
    {
      "inputs": [
        {
          "internalType": "bytes4",
          "name": "interfaceId",
          "type": "bytes4"
        }
      ],
      "name": "supportsInterface",
      "outputs": [
        {
          "internalType": "bool",
          "name": "",
          "type": "bool"
        }
      ],
      "stateMutability": "view",
      "type": "function"
    },
    {
      "inputs": [],
      "name": "symbol",
      "outputs": [
        {
          "internalType": "string",
          "name": "",
          "type": "string"
        }
      ],
      "stateMutability": "view",
      "type": "function"
    },
    {
      "inputs": [
        {
          "internalType": "uint256",
          "name": "tokenId",
          "type": "uint256"
        }
      ],
      "name": "tokenURI",
      "outputs": [
        {
          "internalType": "string",
          "name": "",
          "type": "string"
        }
      ],
      "stateMutability": "view",
      "type": "function"
    },
    {
      "inputs": [
        {
          "internalType": "address",
          "name": "from",
          "type": "address"
        },
        {
          "internalType": "address",
          "name": "to",
          "type": "address"
        },
        {
          "internalType": "uint256",
          "name": "tokenId",
          "type": "uint256"
        }
      ],
      "name": "transferFrom",
      "outputs": [],
      "stateMutability": "nonpayable",
      "type": "function"
    }
  ],
  "bytecode": "0x608060405260016007556040518060400160405280600f81526020017f43726973746f20526564656e746f720000000000000000000000000000000000815250600890816200004f9190620003b7565b506040518060400160405280600281526020017f524a00000000000000000000000000000000000000000000000000000000000081525060099081620000969190620003b7565b50348015620000a457600080fd5b506040518060400160405280600a81526020017f4a6f75726e657947656d000000000000000000000000000000000000000000008152506040518060400160405280600381526020017f4a475400000000000000000000000000000000000000000000000000000000008152508160009081620001229190620003b7565b508060019081620001349190620003b7565b5050506200049e565b600081519050919050565b7f4e487b7100000000000000000000000000000000000000000000000000000000600052604160045260246000fd5b7f4e487b7100000000000000000000000000000000000000000000000000000000600052602260045260246000fd5b60006002820490506001821680620001bf57607f821691505b602082108103620001d557620001d462000177565b5b50919050565b60008190508160005260206000209050919050565b60006020601f8301049050919050565b600082821b905092915050565b6000600883026200023f7fffffffffffffffffffffffffffffffffffffffffffffffffffffffffffffffff8262000200565b6200024b868362000200565b95508019841693508086168417925050509392505050565b6000819050919050565b6000819050919050565b600062000298620002926200028c8462000263565b6200026d565b62000263565b9050919050565b6000819050919050565b620002b48362000277565b620002cc620002c3826200029f565b8484546200020d565b825550505050565b600090565b620002e3620002d4565b620002f0818484620002a9565b505050565b5b8181101562000318576200030c600082620002d9565b600181019050620002f6565b5050565b601f82111562000367576200033181620001db565b6200033c84620001f0565b810160208510156200034c578190505b620003646200035b85620001f0565b830182620002f5565b50505b505050565b600082821c905092915050565b60006200038c600019846008026200036c565b1980831691505092915050565b6000620003a7838362000379565b9150826002028217905092915050565b620003c2826200013d565b67ffffffffffffffff811115620003de57620003dd62000148565b5b620003ea8254620001a6565b620003f78282856200031c565b600060209050601f8311600181146200042f57600084156200041a578287015190505b62000426858262000399565b86555062000496565b601f1984166200043f86620001db565b60005b82811015620004695784890151825560018201915060208501945060208101905062000442565b8683101562000489578489015162000485601f89168262000379565b8355505b6001600288020188555050505b505050505050565b61307380620004ae6000396000f3fe6080604052600436106101095760003560e01c806375794a3c11610095578063c87b56dd11610064578063c87b56dd1461036c578063d0def521146103a9578063e985e9c5146103d2578063eb8862561461040f578063f8b2cb4f1461044c57610109565b806375794a3c146102c457806395d89b41146102ef578063a22cb4651461031a578063b88d4fde1461034357610109565b806323b872dd116100dc57806323b872dd146101dc57806342842e0e146102055780636297c16c1461022e5780636352211e1461024a57806370a082311461028757610109565b806301ffc9a71461010e57806306fdde031461014b578063081812fc14610176578063095ea7b3146101b3575b600080fd5b34801561011a57600080fd5b5061013560048036038101906101309190611e34565b610489565b6040516101429190611e7c565b60405180910390f35b34801561015757600080fd5b5061016061056b565b60405161016d9190611f27565b60405180910390f35b34801561018257600080fd5b5061019d60048036038101906101989190611f7f565b6105fd565b6040516101aa9190611fed565b60405180910390f35b3480156101bf57600080fd5b506101da60048036038101906101d59190612034565b610643565b005b3480156101e857600080fd5b5061020360048036038101906101fe9190612074565b61075a565b005b34801561021157600080fd5b5061022c60048036038101906102279190612074565b6107ba565b005b61024860048036038101906102439190611f7f565b6107da565b005b34801561025657600080fd5b50610271600480360381019061026c9190611f7f565b6107e6565b60405161027e9190611fed565b60405180910390f35b34801561029357600080fd5b506102ae60048036038101906102a991906120c7565b61086c565b6040516102bb9190612103565b60405180910390f35b3480156102d057600080fd5b506102d9610923565b6040516102e69190612103565b60405180910390f35b3480156102fb57600080fd5b50610304610929565b6040516103119190611f27565b60405180910390f35b34801561032657600080fd5b50610341600480360381019061033c919061214a565b6109bb565b005b34801561034f57600080fd5b5061036a600480360381019061036591906122bf565b6109d1565b005b34801561037857600080fd5b50610393600480360381019061038e9190611f7f565b610a33565b6040516103a09190611f27565b60405180910390f35b3480156103b557600080fd5b506103d060048036038101906103cb91906123e3565b610b45565b005b3480156103de57600080fd5b506103f960048036038101906103f4919061243f565b610b96565b6040516104069190611e7c565b60405180910390f35b34801561041b57600080fd5b506104366004803603810190610431919061247f565b610c2a565b6040516104439190611f27565b60405180910390f35b34801561045857600080fd5b50610473600480360381019061046e91906120c7565b610c53565b6040516104809190612103565b60405180910390f35b60007f80ac58cd000000000000000000000000000000000000000000000000000000007bffffffffffffffffffffffffffffffffffffffffffffffffffffffff1916827bffffffffffffffffffffffffffffffffffffffffffffffffffffffff1916148061055457507f5b5e139f000000000000000000000000000000000000000000000000000000007bffffffffffffffffffffffffffffffffffffffffffffffffffffffff1916827bffffffffffffffffffffffffffffffffffffffffffffffffffffffff1916145b80610564575061056382610c65565b5b9050919050565b60606000805461057a906124f7565b80601f01602080910402602001604051908101604052809291908181526020018280546105a6906124f7565b80156105f35780601f106105c8576101008083540402835291602001916105f3565b820191906000526020600020905b8154815290600101906020018083116105d657829003601f168201915b5050505050905090565b600061060882610ccf565b6004600083815260200190815260200160002060009054906101000a900473ffffffffffffffffffffffffffffffffffffffff169050919050565b600061064e826107e6565b90508073ffffffffffffffffffffffffffffffffffffffff168373ffffffffffffffffffffffffffffffffffffffff16036106be576040517f08c379a00000000000000000000000000000000000000000000000000000000081526004016106b59061259a565b60405180910390fd5b8073ffffffffffffffffffffffffffffffffffffffff166106dd610d1a565b73ffffffffffffffffffffffffffffffffffffffff16148061070c575061070b81610706610d1a565b610b96565b5b61074b576040517f08c379a00000000000000000000000000000000000000000000000000000000081526004016107429061262c565b60405180910390fd5b6107558383610d22565b505050565b61076b610765610d1a565b82610ddb565b6107aa576040517f08c379a00000000000000000000000000000000000000000000000000000000081526004016107a1906126be565b60405180910390fd5b6107b5838383610e70565b505050565b6107d5838383604051806020016040528060008152506109d1565b505050565b6107e381611169565b50565b6000806107f2836111bc565b9050600073ffffffffffffffffffffffffffffffffffffffff168173ffffffffffffffffffffffffffffffffffffffff1603610863576040517f08c379a000000000000000000000000000000000000000000000000000000000815260040161085a9061272a565b60405180910390fd5b80915050919050565b60008073ffffffffffffffffffffffffffffffffffffffff168273ffffffffffffffffffffffffffffffffffffffff16036108dc576040517f08c379a00000000000000000000000000000000000000000000000000000000081526004016108d3906127bc565b60405180910390fd5b600360008373ffffffffffffffffffffffffffffffffffffffff1673ffffffffffffffffffffffffffffffffffffffff168152602001908152602001600020549050919050565b60075481565b606060018054610938906124f7565b80601f0160208091040260200160405190810160405280929190818152602001828054610964906124f7565b80156109b15780601f10610986576101008083540402835291602001916109b1565b820191906000526020600020905b81548152906001019060200180831161099457829003601f168201915b5050505050905090565b6109cd6109c6610d1a565b83836111f9565b5050565b6109e26109dc610d1a565b83610ddb565b610a21576040517f08c379a0000000000000000000000000000000000000000000000000000000008152600401610a18906126be565b60405180910390fd5b610a2d84848484611365565b50505050565b6060610a3e82610ccf565b6000600660008481526020019081526020016000208054610a5e906124f7565b80601f0160208091040260200160405190810160405280929190818152602001828054610a8a906124f7565b8015610ad75780601f10610aac57610100808354040283529160200191610ad7565b820191906000526020600020905b815481529060010190602001808311610aba57829003601f168201915b505050505090506000610ae86113c1565b90506000815103610afd578192505050610b40565b600082511115610b32578082604051602001610b1a929190612818565b60405160208183030381529060405292505050610b40565b610b3b846113d8565b925050505b919050565b60006007549050610b568382611440565b610b6881610b6384610c2a565b61145e565b60076000815480929190610b7b9061286b565b9190505550610b91610b8c82610a33565b6114cb565b505050565b6000600560008473ffffffffffffffffffffffffffffffffffffffff1673ffffffffffffffffffffffffffffffffffffffff16815260200190815260200160002060008373ffffffffffffffffffffffffffffffffffffffff1673ffffffffffffffffffffffffffffffffffffffff16815260200190815260200160002060009054906101000a900460ff16905092915050565b606081604051602001610c3d91906128ff565b6040516020818303038152906040529050919050565b6000610c5e8261086c565b9050919050565b60007f01ffc9a7000000000000000000000000000000000000000000000000000000007bffffffffffffffffffffffffffffffffffffffffffffffffffffffff1916827bffffffffffffffffffffffffffffffffffffffffffffffffffffffff1916149050919050565b610cd881611564565b610d17576040517f08c379a0000000000000000000000000000000000000000000000000000000008152600401610d0e9061272a565b60405180910390fd5b50565b600033905090565b816004600083815260200190815260200160002060006101000a81548173ffffffffffffffffffffffffffffffffffffffff021916908373ffffffffffffffffffffffffffffffffffffffff160217905550808273ffffffffffffffffffffffffffffffffffffffff16610d95836107e6565b73ffffffffffffffffffffffffffffffffffffffff167f8c5be1e5ebec7d5bd14f71427d1e84f3dd0314c0f7b2291e5b200ac8c7c3b92560405160405180910390a45050565b600080610de7836107e6565b90508073ffffffffffffffffffffffffffffffffffffffff168473ffffffffffffffffffffffffffffffffffffffff161480610e295750610e288185610b96565b5b80610e6757508373ffffffffffffffffffffffffffffffffffffffff16610e4f846105fd565b73ffffffffffffffffffffffffffffffffffffffff16145b91505092915050565b8273ffffffffffffffffffffffffffffffffffffffff16610e90826107e6565b73ffffffffffffffffffffffffffffffffffffffff1614610ee6576040517f08c379a0000000000000000000000000000000000000000000000000000000008152600401610edd90612993565b60405180910390fd5b600073ffffffffffffffffffffffffffffffffffffffff168273ffffffffffffffffffffffffffffffffffffffff1603610f55576040517f08c379a0000000000000000000000000000000000000000000000000000000008152600401610f4c90612a25565b60405180910390fd5b610f6283838360016115a5565b8273ffffffffffffffffffffffffffffffffffffffff16610f82826107e6565b73ffffffffffffffffffffffffffffffffffffffff1614610fd8576040517f08c379a0000000000000000000000000000000000000000000000000000000008152600401610fcf90612993565b60405180910390fd5b6004600082815260200190815260200160002060006101000a81549073ffffffffffffffffffffffffffffffffffffffff02191690556001600360008573ffffffffffffffffffffffffffffffffffffffff1673ffffffffffffffffffffffffffffffffffffffff168152602001908152602001600020600082825403925050819055506001600360008473ffffffffffffffffffffffffffffffffffffffff1673ffffffffffffffffffffffffffffffffffffffff16815260200190815260200160002060008282540192505081905550816002600083815260200190815260200160002060006101000a81548173ffffffffffffffffffffffffffffffffffffffff021916908373ffffffffffffffffffffffffffffffffffffffff160217905550808273ffffffffffffffffffffffffffffffffffffffff168473ffffffffffffffffffffffffffffffffffffffff167fddf252ad1be2c89b69c2b068fc378daa952ba7f163c4a11628f55a4df523b3ef60405160405180910390a461116483838360016115ab565b505050565b611172816115b1565b6000600660008381526020019081526020016000208054611192906124f7565b9050146111b9576006600082815260200190815260200160002060006111b89190611d6b565b5b50565b60006002600083815260200190815260200160002060009054906101000a900473ffffffffffffffffffffffffffffffffffffffff169050919050565b8173ffffffffffffffffffffffffffffffffffffffff168373ffffffffffffffffffffffffffffffffffffffff1603611267576040517f08c379a000000000000000000000000000000000000000000000000000000000815260040161125e90612a91565b60405180910390fd5b80600560008573ffffffffffffffffffffffffffffffffffffffff1673ffffffffffffffffffffffffffffffffffffffff16815260200190815260200160002060008473ffffffffffffffffffffffffffffffffffffffff1673ffffffffffffffffffffffffffffffffffffffff16815260200190815260200160002060006101000a81548160ff0219169083151502179055508173ffffffffffffffffffffffffffffffffffffffff168373ffffffffffffffffffffffffffffffffffffffff167f17307eab39ab6107e8899845ad3d59bd9653f200f220920489ca2b5937696c31836040516113589190611e7c565b60405180910390a3505050565b611370848484610e70565b61137c848484846116ff565b6113bb576040517f08c379a00000000000000000000000000000000000000000000000000000000081526004016113b290612b23565b60405180910390fd5b50505050565b606060405180602001604052806000815250905090565b60606113e382610ccf565b60006113ed6113c1565b9050600081511161140d5760405180602001604052806000815250611438565b8061141784611886565b604051602001611428929190612818565b6040516020818303038152906040525b915050919050565b61145a828260405180602001604052806000815250611954565b5050565b61146782611564565b6114a6576040517f08c379a000000000000000000000000000000000000000000000000000000000815260040161149d90612bb5565b60405180910390fd5b806006600084815260200190815260200160002090816114c69190612d81565b505050565b611561816040516024016114df9190611f27565b6040516020818303038152906040527f41304fac000000000000000000000000000000000000000000000000000000007bffffffffffffffffffffffffffffffffffffffffffffffffffffffff19166020820180517bffffffffffffffffffffffffffffffffffffffffffffffffffffffff83818316178352505050506119af565b50565b60008073ffffffffffffffffffffffffffffffffffffffff16611586836111bc565b73ffffffffffffffffffffffffffffffffffffffff1614159050919050565b50505050565b50505050565b60006115bc826107e6565b90506115cc8160008460016115a5565b6115d5826107e6565b90506004600083815260200190815260200160002060006101000a81549073ffffffffffffffffffffffffffffffffffffffff02191690556001600360008373ffffffffffffffffffffffffffffffffffffffff1673ffffffffffffffffffffffffffffffffffffffff168152602001908152602001600020600082825403925050819055506002600083815260200190815260200160002060006101000a81549073ffffffffffffffffffffffffffffffffffffffff021916905581600073ffffffffffffffffffffffffffffffffffffffff168273ffffffffffffffffffffffffffffffffffffffff167fddf252ad1be2c89b69c2b068fc378daa952ba7f163c4a11628f55a4df523b3ef60405160405180910390a46116fb8160008460016115ab565b5050565b60006117208473ffffffffffffffffffffffffffffffffffffffff166119d8565b15611879578373ffffffffffffffffffffffffffffffffffffffff1663150b7a02611749610d1a565b8786866040518563ffffffff1660e01b815260040161176b9493929190612ea8565b6020604051808303816000875af19250505080156117a757506040513d601f19601f820116820180604052508101906117a49190612f09565b60015b611829573d80600081146117d7576040519150601f19603f3d011682016040523d82523d6000602084013e6117dc565b606091505b506000815103611821576040517f08c379a000000000000000000000000000000000000000000000000000000000815260040161181890612b23565b60405180910390fd5b805181602001fd5b63150b7a0260e01b7bffffffffffffffffffffffffffffffffffffffffffffffffffffffff1916817bffffffffffffffffffffffffffffffffffffffffffffffffffffffff19161491505061187e565b600190505b949350505050565b606060006001611895846119fb565b01905060008167ffffffffffffffff8111156118b4576118b3612194565b5b6040519080825280601f01601f1916602001820160405280156118e65781602001600182028036833780820191505090505b509050600082602001820190505b600115611949578080600190039150507f3031323334353637383961626364656600000000000000000000000000000000600a86061a8153600a858161193d5761193c612f36565b5b049450600085036118f4575b819350505050919050565b61195e8383611b4e565b61196b60008484846116ff565b6119aa576040517f08c379a00000000000000000000000000000000000000000000000000000000081526004016119a190612b23565b60405180910390fd5b505050565b60008151905060006a636f6e736f6c652e6c6f679050602083016000808483855afa5050505050565b6000808273ffffffffffffffffffffffffffffffffffffffff163b119050919050565b600080600090507a184f03e93ff9f4daa797ed6e38ed64bf6a1f0100000000000000008310611a59577a184f03e93ff9f4daa797ed6e38ed64bf6a1f0100000000000000008381611a4f57611a4e612f36565b5b0492506040810190505b6d04ee2d6d415b85acef81000000008310611a96576d04ee2d6d415b85acef81000000008381611a8c57611a8b612f36565b5b0492506020810190505b662386f26fc100008310611ac557662386f26fc100008381611abb57611aba612f36565b5b0492506010810190505b6305f5e1008310611aee576305f5e1008381611ae457611ae3612f36565b5b0492506008810190505b6127108310611b13576127108381611b0957611b08612f36565b5b0492506004810190505b60648310611b365760648381611b2c57611b2b612f36565b5b0492506002810190505b600a8310611b45576001810190505b80915050919050565b600073ffffffffffffffffffffffffffffffffffffffff168273ffffffffffffffffffffffffffffffffffffffff1603611bbd576040517f08c379a0000000000000000000000000000000000000000000000000000000008152600401611bb490612fb1565b60405180910390fd5b611bc681611564565b15611c06576040517f08c379a0000000000000000000000000000000000000000000000000000000008152600401611bfd9061301d565b60405180910390fd5b611c146000838360016115a5565b611c1d81611564565b15611c5d576040517f08c379a0000000000000000000000000000000000000000000000000000000008152600401611c549061301d565b60405180910390fd5b6001600360008473ffffffffffffffffffffffffffffffffffffffff1673ffffffffffffffffffffffffffffffffffffffff16815260200190815260200160002060008282540192505081905550816002600083815260200190815260200160002060006101000a81548173ffffffffffffffffffffffffffffffffffffffff021916908373ffffffffffffffffffffffffffffffffffffffff160217905550808273ffffffffffffffffffffffffffffffffffffffff16600073ffffffffffffffffffffffffffffffffffffffff167fddf252ad1be2c89b69c2b068fc378daa952ba7f163c4a11628f55a4df523b3ef60405160405180910390a4611d676000838360016115ab565b5050565b508054611d77906124f7565b6000825580601f10611d895750611da8565b601f016020900490600052602060002090810190611da79190611dab565b5b50565b5b80821115611dc4576000816000905550600101611dac565b5090565b6000604051905090565b600080fd5b600080fd5b60007fffffffff0000000000000000000000000000000000000000000000000000000082169050919050565b611e1181611ddc565b8114611e1c57600080fd5b50565b600081359050611e2e81611e08565b92915050565b600060208284031215611e4a57611e49611dd2565b5b6000611e5884828501611e1f565b91505092915050565b60008115159050919050565b611e7681611e61565b82525050565b6000602082019050611e916000830184611e6d565b92915050565b600081519050919050565b600082825260208201905092915050565b60005b83811015611ed1578082015181840152602081019050611eb6565b60008484015250505050565b6000601f19601f8301169050919050565b6000611ef982611e97565b611f038185611ea2565b9350611f13818560208601611eb3565b611f1c81611edd565b840191505092915050565b60006020820190508181036000830152611f418184611eee565b905092915050565b6000819050919050565b611f5c81611f49565b8114611f6757600080fd5b50565b600081359050611f7981611f53565b92915050565b600060208284031215611f9557611f94611dd2565b5b6000611fa384828501611f6a565b91505092915050565b600073ffffffffffffffffffffffffffffffffffffffff82169050919050565b6000611fd782611fac565b9050919050565b611fe781611fcc565b82525050565b60006020820190506120026000830184611fde565b92915050565b61201181611fcc565b811461201c57600080fd5b50565b60008135905061202e81612008565b92915050565b6000806040838503121561204b5761204a611dd2565b5b60006120598582860161201f565b925050602061206a85828601611f6a565b9150509250929050565b60008060006060848603121561208d5761208c611dd2565b5b600061209b8682870161201f565b93505060206120ac8682870161201f565b92505060406120bd86828701611f6a565b9150509250925092565b6000602082840312156120dd576120dc611dd2565b5b60006120eb8482850161201f565b91505092915050565b6120fd81611f49565b82525050565b600060208201905061211860008301846120f4565b92915050565b61212781611e61565b811461213257600080fd5b50565b6000813590506121448161211e565b92915050565b6000806040838503121561216157612160611dd2565b5b600061216f8582860161201f565b925050602061218085828601612135565b9150509250929050565b600080fd5b600080fd5b7f4e487b7100000000000000000000000000000000000000000000000000000000600052604160045260246000fd5b6121cc82611edd565b810181811067ffffffffffffffff821117156121eb576121ea612194565b5b80604052505050565b60006121fe611dc8565b905061220a82826121c3565b919050565b600067ffffffffffffffff82111561222a57612229612194565b5b61223382611edd565b9050602081019050919050565b82818337600083830152505050565b600061226261225d8461220f565b6121f4565b90508281526020810184848401111561227e5761227d61218f565b5b612289848285612240565b509392505050565b600082601f8301126122a6576122a561218a565b5b81356122b684826020860161224f565b91505092915050565b600080600080608085870312156122d9576122d8611dd2565b5b60006122e78782880161201f565b94505060206122f88782880161201f565b935050604061230987828801611f6a565b925050606085013567ffffffffffffffff81111561232a57612329611dd7565b5b61233687828801612291565b91505092959194509250565b600067ffffffffffffffff82111561235d5761235c612194565b5b61236682611edd565b9050602081019050919050565b600061238661238184612342565b6121f4565b9050828152602081018484840111156123a2576123a161218f565b5b6123ad848285612240565b509392505050565b600082601f8301126123ca576123c961218a565b5b81356123da848260208601612373565b91505092915050565b600080604083850312156123fa576123f9611dd2565b5b60006124088582860161201f565b925050602083013567ffffffffffffffff81111561242957612428611dd7565b5b612435858286016123b5565b9150509250929050565b6000806040838503121561245657612455611dd2565b5b60006124648582860161201f565b92505060206124758582860161201f565b9150509250929050565b60006020828403121561249557612494611dd2565b5b600082013567ffffffffffffffff8111156124b3576124b2611dd7565b5b6124bf848285016123b5565b91505092915050565b7f4e487b7100000000000000000000000000000000000000000000000000000000600052602260045260246000fd5b6000600282049050600182168061250f57607f821691505b602082108103612522576125216124c8565b5b50919050565b7f4552433732313a20617070726f76616c20746f2063757272656e74206f776e6560008201527f7200000000000000000000000000000000000000000000000000000000000000602082015250565b6000612584602183611ea2565b915061258f82612528565b604082019050919050565b600060208201905081810360008301526125b381612577565b9050919050565b7f4552433732313a20617070726f76652063616c6c6572206973206e6f7420746f60008201527f6b656e206f776e6572206f7220617070726f76656420666f7220616c6c000000602082015250565b6000612616603d83611ea2565b9150612621826125ba565b604082019050919050565b6000602082019050818103600083015261264581612609565b9050919050565b7f4552433732313a2063616c6c6572206973206e6f7420746f6b656e206f776e6560008201527f72206f7220617070726f76656400000000000000000000000000000000000000602082015250565b60006126a8602d83611ea2565b91506126b38261264c565b604082019050919050565b600060208201905081810360008301526126d78161269b565b9050919050565b7f4552433732313a20696e76616c696420746f6b656e2049440000000000000000600082015250565b6000612714601883611ea2565b915061271f826126de565b602082019050919050565b6000602082019050818103600083015261274381612707565b9050919050565b7f4552433732313a2061646472657373207a65726f206973206e6f74206120766160008201527f6c6964206f776e65720000000000000000000000000000000000000000000000602082015250565b60006127a6602983611ea2565b91506127b18261274a565b604082019050919050565b600060208201905081810360008301526127d581612799565b9050919050565b600081905092915050565b60006127f282611e97565b6127fc81856127dc565b935061280c818560208601611eb3565b80840191505092915050565b600061282482856127e7565b915061283082846127e7565b91508190509392505050565b7f4e487b7100000000000000000000000000000000000000000000000000000000600052601160045260246000fd5b600061287682611f49565b91507fffffffffffffffffffffffffffffffffffffffffffffffffffffffffffffffff82036128a8576128a761283c565b5b600182019050919050565b7f697066733a2f2f00000000000000000000000000000000000000000000000000600082015250565b60006128e96007836127dc565b91506128f4826128b3565b600782019050919050565b600061290a826128dc565b915061291682846127e7565b915081905092915050565b7f4552433732313a207472616e736665722066726f6d20696e636f72726563742060008201527f6f776e6572000000000000000000000000000000000000000000000000000000602082015250565b600061297d602583611ea2565b915061298882612921565b604082019050919050565b600060208201905081810360008301526129ac81612970565b9050919050565b7f4552433732313a207472616e7366657220746f20746865207a65726f2061646460008201527f7265737300000000000000000000000000000000000000000000000000000000602082015250565b6000612a0f602483611ea2565b9150612a1a826129b3565b604082019050919050565b60006020820190508181036000830152612a3e81612a02565b9050919050565b7f4552433732313a20617070726f766520746f2063616c6c657200000000000000600082015250565b6000612a7b601983611ea2565b9150612a8682612a45565b602082019050919050565b60006020820190508181036000830152612aaa81612a6e565b9050919050565b7f4552433732313a207472616e7366657220746f206e6f6e20455243373231526560008201527f63656976657220696d706c656d656e7465720000000000000000000000000000602082015250565b6000612b0d603283611ea2565b9150612b1882612ab1565b604082019050919050565b60006020820190508181036000830152612b3c81612b00565b9050919050565b7f45524337323155524953746f726167653a2055524920736574206f66206e6f6e60008201527f6578697374656e7420746f6b656e000000000000000000000000000000000000602082015250565b6000612b9f602e83611ea2565b9150612baa82612b43565b604082019050919050565b60006020820190508181036000830152612bce81612b92565b9050919050565b60008190508160005260206000209050919050565b60006020601f8301049050919050565b600082821b905092915050565b600060088302612c377fffffffffffffffffffffffffffffffffffffffffffffffffffffffffffffffff82612bfa565b612c418683612bfa565b95508019841693508086168417925050509392505050565b6000819050919050565b6000612c7e612c79612c7484611f49565b612c59565b611f49565b9050919050565b6000819050919050565b612c9883612c63565b612cac612ca482612c85565b848454612c07565b825550505050565b600090565b612cc1612cb4565b612ccc818484612c8f565b505050565b5b81811015612cf057612ce5600082612cb9565b600181019050612cd2565b5050565b601f821115612d3557612d0681612bd5565b612d0f84612bea565b81016020851015612d1e578190505b612d32612d2a85612bea565b830182612cd1565b50505b505050565b600082821c905092915050565b6000612d5860001984600802612d3a565b1980831691505092915050565b6000612d718383612d47565b9150826002028217905092915050565b612d8a82611e97565b67ffffffffffffffff811115612da357612da2612194565b5b612dad82546124f7565b612db8828285612cf4565b600060209050601f831160018114612deb5760008415612dd9578287015190505b612de38582612d65565b865550612e4b565b601f198416612df986612bd5565b60005b82811015612e2157848901518255600182019150602085019450602081019050612dfc565b86831015612e3e5784890151612e3a601f891682612d47565b8355505b6001600288020188555050505b505050505050565b600081519050919050565b600082825260208201905092915050565b6000612e7a82612e53565b612e848185612e5e565b9350612e94818560208601611eb3565b612e9d81611edd565b840191505092915050565b6000608082019050612ebd6000830187611fde565b612eca6020830186611fde565b612ed760408301856120f4565b8181036060830152612ee98184612e6f565b905095945050505050565b600081519050612f0381611e08565b92915050565b600060208284031215612f1f57612f1e611dd2565b5b6000612f2d84828501612ef4565b91505092915050565b7f4e487b7100000000000000000000000000000000000000000000000000000000600052601260045260246000fd5b7f4552433732313a206d696e7420746f20746865207a65726f2061646472657373600082015250565b6000612f9b602083611ea2565b9150612fa682612f65565b602082019050919050565b60006020820190508181036000830152612fca81612f8e565b9050919050565b7f4552433732313a20746f6b656e20616c7265616479206d696e74656400000000600082015250565b6000613007601c83611ea2565b915061301282612fd1565b602082019050919050565b6000602082019050818103600083015261303681612ffa565b905091905056fea264697066735822122014d7497d80901e7db15d2cfb0bfc93712c273a81f36f77c92ac497af09ae482564736f6c63430008120033",
  "linkReferences": {},
  "deployedLinkReferences": {}
}